:1040000048C0002001430000FD420000FD420000C6
:10401000FD420000FD420000FD42000000000000E3
:10402000000000000000000000000000FD42000051
:10403000FD42000000000000FD420000FD420000C3
:10404000FD420000FD420000FD420000FD42000074
:10405000FD420000FD420000FD420000FD42000064
:10406000FD420000FD420000FD42000079430000D7
:10407000FD420000FD420000FD420000FD42000044
:10408000FD420000FD420000FD420000FD42000034
:10409000FD420000FD420000FD420000FD42000024
:1040A000FD420000FD420000FD420000FD42000014
:1040B000FD420000FD420000FD420000FD42000004
:1040C000FD420000FD420000FD420000FD420000F4
:1040D000FD420000FD420000FD420000FD420000E4
:1040E000FD420000FD420000FD420000FD420000D4
:1040F00000000000A5420000FD420000FD4200005B
:10410000FD420000FD420000FD420000FD420000B3
:10411000FD420000FD420000FD420000FD420000A3
:10412000FD420000FD420000FD420000FD42000093
:10413000FD420000FD420000FD420000FD42000083
:10414000FD420000FD420000FD420000FD42000073
:10415000FD420000FD4200000000000000000000E1
:10416000000000000000000000000000000000004F
:10417000000000000000000000000000000000003F
:10418000FD420000FD420000FD420000FD42000033
:1041900000000000FD420000FD420000FD42000062
:1041A000FD420000FD420000FD420000FD42000013
:1041B000FD420000FD420000FD420000FD42000003
:1041C000FD420000FD420000FD420000FD420000F3
:1041D000FD420000000000000000000000000000A0
:1041E000000000000000000000000000B1430000DB
:1041F000C1430000FD420000FD420000000000003D
:10420000000000000000000000000000FD4200006F
:10421000FD420000FD420000FD420000FD420000A2
:10422000FD420000FD420000FD420000FD42000092
:10423000FD420000FD420000FD420000FD42000082
:1042400000000000FD420000FD420000FD420000B1
:10425000FD420000FD420000FD420000FD42000062
:104260000000000010B5054C237833B9044B13B19E
:104270000448AFF300800123237010BD0C00002020
:1042800000000000F44E000008B5034B1BB10349C9
:104290000348AFF3008008BD0000000010000020BC
:1042A000F44E00000B4A937882B0DBB20193019B7D
:1042B000990705D5084B1B6813B1506802B0184721
:1042C000019BDB0704D5044B5B680BB1014AF4E7A3
:1042D00002B070470000024134000020014B024A46
:1042E0001A60704700000020006CDC02014B024A9B
:1042F0001A60704700000020006CDC02FEE700003E
:1043000008B5144A144B9A4203D01449043A8B421C
:1043100018D3134B134A0021934218D3124A134B5C
:1043200022F07F029A60D3F8882042F47002C3F82A
:104330008820BFF34F8FBFF36F8F0D4B98470D4B06
:104340009847FEE752F8040F43F8040BDFE743F801
:10435000041BE1E7F44E0000000000200C000020E8
:104360000C000020440000200040000000ED00E0B0
:104370008D4E0000114D0000074B10B51C68E3681E
:104380009B89DB0507D523680BB120469847E36876
:104390004FF480729A8110BD28000020C268917A83
:1043A000C90703D5012191720368184770470000BF
:1043B000014B1868014B18472C0000209D4300005A
:1043C000014B5868014B18472C0000209D4300000A
:1043D000054B4FF400129A604FF400029A604FF4BC
:1043E0008032C3F88820704700800041294A138832
:1043F00043F004031380284B9A8A012161F34E3263
:104400009A829A8A6FF30A229A829A8A6FF3C71263
:104410009A829A8A42F004029A829A8A42F00802A8
:104420009A829A8A42F002029A82DA68D107FCD50F
:104430001A7C052161F302021A74184B012159718B
:1044400003F500639A6B61F347129A63144A5A6347
:104450009A6B42F400629A6393F830206FF3C712AC
:1044600083F8302093F8302042F0020283F83020A5
:104470001A6CD207FCD50B4B1A6A072161F30302B1
:104480001A621A6AC0F201021A621A6A42F480724F
:104490001A627047004000410014004000080040CC
:1044A000BA0A0300001C00400B4B4FF480429A6094
:1044B00093F84E2042F0010283F84E2093F8372003
:1044C0000C2161F3030283F83720044A136A43F492
:1044D00000631362704700BF00800041001C004071
:1044E00082B08D230193019B002B01DC02B0704749
:1044F000019B013BF6E7000007B52323064A019321
:10450000019B002B02DC03B05DF804FB9047019B8C
:10451000013B0193F4E700BFE144000007B540F21E
:104520004F13064A0193019B002B02DC03B05DF898
:1045300004FB9047019B013B0193F4E7E144000039
:1045400007B540F61B53064A0193019B002B02DC82
:1045500003B05DF804FB9047019B013B0193F4E736
:10456000E1440000094A0A494FF4803310B5C2F80B
:1045700094308847D2F8983043F48033C2F89830AA
:104580008847044BBDE81040184700BF0080004139
:10459000E1440000F9440000034B4FF48032C3F8BB
:1045A0009420024B184700BF00800041E144000006
:1045B000044AD2F8983043F48033C2F89830024B62
:1045C000184700BF00800041E144000010B5044BD3
:1045D0009847044B9847044BBDE81040184700BF6C
:1045E000F9440000E14400009945000010B5074B74
:1045F000984707498847074880478847884788473A
:1046000088478047044BBDE810401847CD4500005F
:1046100099450000B14500006545000010B5074B05
:104620009847074988470748804780478847884711
:1046300088478047044BBDE810401847CD4500002F
:1046400099450000B14500006545000010B5074BD5
:1046500098470749884788470648804788478847DA
:1046600088478047044BBDE810401847CD450000FF
:1046700099450000B14500006545000010B5074BA5
:1046800098470748804707498847804788478847B1
:1046900088478047044BBDE810401847CD450000CF
:1046A000B1450000994500006545000010B5074B75
:1046B0009847074880478047064988478847884782
:1046C00088478047044BBDE810401847CD4500009F
:1046D000B1450000994500006545000010B5074B45
:1046E0009847074988478847884706488047804752
:1046F00080478847044BBDE810401847CD4500006F
:10470000B1450000994500006545000010B5074B14
:104710009847074988478847064880478047884721
:1047200088478047044BBDE810401847CD4500003E
:10473000B1450000994500006545000010B5074BE4
:1047400098470749884707488047884788478047F0
:1047500080478847044BBDE810401847CD4500000E
:1047600099450000B14500006545000010B5074BB4
:1047700098470749884707488047884780478847C0
:1047800088478847044BBDE810401847CD450000D6
:1047900099450000B14500006545000010B5074B84
:1047A0009847074880470749884780478047884798
:1047B00088478847044BBDE810401847CD450000A6
:1047C000B1450000994500006545000010B5034B58
:1047D0009847034BBDE81040184700BF9D470000B5
:1047E0006D47000010B5094B9847094B9847094998
:1047F000884788478847884788478847064B9847AF
:104800008847064BBDE81040184700BF41450000EF
:10481000E144000099450000B145000065450000F5
:1048200010B5034B9847034BBDE81040184700BF35
:104830001D450000E547000010B5034B9847034BAA
:10484000BDE81040184700BF41450000E5470000A3
:1048500010B503488047034B9847BDE81040004718
:1048600021480000E547000010B5074B984707496D
:104870008847884788478847054880478047884752
:10488000044BBDE810401847CD4500009945000095
:10489000B14500006545000010B5074B9847074932
:1048A0008847074880478047884788478847804728
:1048B000044BBDE810401847CD450000B14500004D
:1048C000994500006545000010B5074B984707481B
:1048D00080470749884788478047884788478047F7
:1048E000044BBDE810401847CD4500009945000035
:1048F000B14500006545000010B5074B98470749D2
:1049000088478847884706488047804780478847C8
:10491000044BBDE810401847CD4500009945000004
:10492000B14500006545000010B5074B98470748A2
:104930008047074988478847884780478047884796
:10494000044BBDE810401847CD45000099450000D4
:10495000B14500006545000010B5074B9847074971
:104960008847074880478847884780478847804767
:10497000044BBDE810401847CD45000099450000A4
:10498000B14500006545000010B5074B9847074941
:104990008847884706488047884780478047884738
:1049A000044BBDE810401847CD4500009945000074
:1049B000B14500006545000010B5074B9847074911
:1049C0008847884706488047884780478847804708
:1049D000044BBDE810401847CD4500009945000044
:1049E000B14500006545000010B5074B98470748E2
:1049F00080470749884788478847804780478847D6
:104A0000044BBDE810401847CD450000B1450000FB
:104A1000994500006545000010B5074B98470748C9
:104A2000804707498847884788478847884780479D
:104A3000044BBDE810401847CD450000B1450000CB
:104A4000994500006545000010B5094B9847094B92
:104A500098470948804709498847884788478047D9
:104A6000884780478847064BBDE81040184700BF7D
:104A700041450000E144000099450000B1450000B7
:104A80006545000010B5094B9847094B9847094800
:104A9000804709498847884788478047884788472B
:104AA0008047064BBDE81040184700BF4145000055
:104AB000E144000099450000B14500006545000053
:104AC00010B5094B9847094B984709498847094849
:104AD0008047884780478847804780478847064BFC
:104AE000BDE81040184700BF41450000E144000008
:104AF00099450000B14500006545000010B50E4B1A
:104B000098470E4A90470E494FF48030C1F8940000
:104B10009047C1F89400904790479047904790473E
:104B20009047D1F8983043F48033C1F898309047DB
:104B3000044BBDE81040184741450000E144000027
:104B4000008000416545000010B5154B9847154A97
:104B5000904715494FF48030C1F894009047D1F840
:104B6000983043F48033C1F898309047C1F89400EE
:104B7000904790479047D1F8983043F48033C1F87C
:104B800098309047C1F894009047D1F8983043F49A
:104B90008033C1F898309047044BBDE81040184767
:104BA00041450000E14400000080004165450000EF
:104BB00010B5034B9847034BBDE81040184700BFA2
:104BC000694800005148000010B5034B9847034B5B
:104BD000BDE81040184700BFE949000051480000F7
:104BE0002DE9F041094E0A4F0546002425FA04F349
:104BF000DB0709D5B8470134082CF7D1054B984796
:104C0000054BBDE8F0411847B047F4E7C94B000039
:104C1000B14B0000CD4700005148000070B5094B72
:104C2000094C0A4D9847002120FA01F3DB0707D50C
:104C3000A84701310729F7D1054BBDE87040184757
:104C4000A047F6E7CD45000099450000B1450000BA
:104C5000654500002DE9F047DFF880901D4D4FF0CD
:104C600008084E46C847A8471B4C2027384601373E
:104C7000A0477F2FFAD1B047A847B8F10108F1D17A
:104C8000B047A847B047A8472020A0472020A0470A
:104C90006120A0477220A0476520A0472020A047A0
:104CA0007920A0476F20A0477520A0472020A0476B
:104CB0007220A0476520A0476120A0476420A0473C
:104CC0007920A0473F20A047B0472B46BDE8F047DA
:104CD000184700BF514800001D4C0000CD470000A0
:104CE00070B5074B074E084D9847084B984750241E
:104CF000747120460134A8475A2CF9D170BD00BF09
:104D0000CD47000004000020E14B000051480000A6
:104D1000F7B53B4B98473B4B98473B4B98473B4B32
:104D200098473B4B98473B4B2B229A713A4B9847FD
:104D30003A4B98473A4B98473A4B984745F23423B9
:104D40000093009B002B54DC374C384F384E4AF60A
:104D50009C55A047B847A047B047A047354B984758
:104D6000A047354B9847A047344B9847A047344B52
:104D70009847A047334B9847A047334B9847A047E5
:104D8000324B9847A047324B9847A047314B984742
:104D9000A047314B9847A047304B9847A047304B2E
:104DA0009847A0472F4B9847A0472F4B9847A047BD
:104DB0002E4B9847A0472E4B9847A0472D4B98471E
:104DC000A0472D4B9847A0472C4B9847A0472C4B0A
:104DD0009847A0472B4B9847A047013DB9D12A4A95
:104DE0008D204FF400110190019B002B04DCD16158
:104DF000F9E7009B013BA3E7019B013B0193F3E72C
:104E0000ED420000DD420000D1430000ED43000010
:104E1000A944000004000020CD47000051480000D4
:104E2000554C0000E14C000039480000494A0000A0
:104E3000B9490000494B00005949000029490000C8
:104E4000DD4600001D4600007D4600004D46000086
:104E5000AD460000ED450000194A00006948000019
:104E600099480000F9480000854A0000C948000040
:104E7000C14A0000894900000D4700003D4700007D
:104E8000E9490000FD4A00000080004170B50D4E68
:104E90000D4CA41BA4100025A54209D10B4E0C4CAF
:104EA00000F018F8A41BA4100025A54205D170BD80
:104EB00056F8253098470135EEE756F825309847E3
:104EC0000135F2E7E04E0000E04E0000E04E000049
:104ED000E44E0000F8B500BFF8BC08BC9E46704721
:104EE00089420000F8B500BFF8BC08BC9E46704778
:044EF0006542000017
:0C4EF400006CDC02FFFFFFFFFF7FFFFFF0
:0400000300004000B9
:00000001FF
