:1040000030C00020F1420000ED420000ED4200000F
:10401000ED420000ED420000ED4200000000000013
:10402000000000000000000000000000ED42000061
:10403000ED42000000000000ED420000ED420000F3
:10404000ED420000ED420000ED420000ED420000B4
:10405000ED420000ED420000ED420000ED420000A4
:10406000ED420000ED420000ED420000ED42000094
:10407000ED420000ED420000ED420000ED42000084
:10408000ED420000ED420000ED420000ED42000074
:10409000ED420000ED420000ED420000ED42000064
:1040A000ED420000ED420000ED420000ED42000054
:1040B000ED420000ED420000ED420000ED42000044
:1040C000ED420000ED420000ED420000ED42000034
:1040D000ED420000ED420000ED420000ED42000024
:1040E000ED420000ED420000ED420000ED42000014
:1040F00000000000B5420000ED420000ED4200006B
:10410000ED420000ED420000ED420000ED420000F3
:10411000ED420000ED420000ED420000ED420000E3
:10412000ED420000ED420000ED420000ED420000D3
:10413000ED420000ED420000ED420000ED420000C3
:10414000ED420000ED420000ED420000ED420000B3
:10415000ED420000ED420000000000000000000001
:10416000000000000000000000000000000000004F
:10417000000000000000000000000000000000003F
:10418000ED420000ED420000ED420000ED42000073
:1041900000000000ED420000ED420000ED42000092
:1041A000ED420000ED420000ED420000ED42000053
:1041B000ED420000ED420000ED420000ED42000043
:1041C000ED420000ED420000ED420000ED42000033
:1041D000ED420000ED420000ED420000ED42000023
:1041E000ED420000ED420000ED420000ED42000013
:1041F000ED420000ED420000ED420000ED42000003
:10420000ED4200000000000000000000ED42000050
:10421000ED420000ED420000ED420000ED420000E2
:10422000ED420000ED420000ED420000ED420000D2
:10423000ED420000ED420000ED420000ED420000C2
:10424000ED420000ED420000ED420000ED420000B2
:10425000ED420000ED420000ED420000ED420000A2
:104260000000000010B5054C237833B9044B13B19E
:104270000448AFF300800123237010BD0400002028
:10428000000000008445000008B5034B1BB1034942
:104290000348AFF3008008BD0000000008000020C4
:1042A00084450000014B024A1A607047000000205C
:1042B000006CDC020B4A937882B0DBB20193019B65
:1042C000990705D5084B1B6813B1506802B0184711
:1042D000019BDB0704D5044B5B680BB1014AF4E793
:1042E00002B070470000024120000020FEE70000FD
:1042F00008B5144A144B9A4203D01449043A8B422D
:1043000018D3134B134A0021934218D3124A134B6C
:1043100022F07F029A60D3F8882042F47002C3F83A
:104320008820BFF34F8FBFF36F8F0D4B98470D4B16
:104330009847FEE752F8040F43F8040BDFE743F811
:10434000041BE1E784450000000000200400002079
:1043500004000020300000200040000000ED00E0DC
:104360001D450000BD44000082B001230193019B64
:10437000012B01DD02B07047019B0133F6E700001D
:1043800008B50549054A08468847013AFCD1034A61
:104390008047013AFCD108BD69430000D0A7200046
:1043A00010B5054B054C9847A047054B9847234649
:1043B000BDE81040184700BFFD44000081430000E5
:1043C0000D450000304A13889BB213802F4B1A789A
:1043D00042F001021A705A68D007FCD44FF482727E
:1043E000DA625A689106FCD44FF4827227491A6245
:1043F0004A6812F00402FBD1254B1A77254A9A62CB
:1044000093F82C2012F01002FAD183F82020204BD0
:10441000194693F82C205207FBD41A7F42F002026F
:104420001A7791F82C309B07FBD49823184A81F80F
:1044300020301369D805FCD5144B174A5A635A68C3
:104440001106FCD44522C3F88420114B3B225A6349
:10445000DA6B5207FCD44FF400629A63022283F8AD
:1044600030200B4B1A6C9007FCD51A6CD107F9D58C
:10447000064B40F207321A625A685207FCD4074BC7
:1044800001225A71704700BF00400041001C0040EB
:104490000010004000000104060118000008004060
:1044A00008B5034B034D044C9847A847A047FCE7C9
:1044B000FD440000A14300008143000008B5044B07
:1044C0009847044B9847044B9847044B984700BFC4
:1044D000A5420000C5430000E1440000A1440000E3
:1044E000044B4FF400029A604FF080429A62024AF5
:1044F0009A62704700800041800000C0024B4FF478
:1045000000029A61704700BF00800041024B4FF4E7
:1045100000025A61704700BF0080004170B50D4E27
:104520000D4CA41BA4100025A54209D10B4E0C4C28
:1045300000F018F8A41BA4100025A54205D170BDF9
:1045400056F8253098470135EEE756F8253098475C
:104550000135F2E77045000070450000704500002D
:1045600074450000F8B500BFF8BC08BC9E46704713
:1045700089420000F8B500BFF8BC08BC9E467047F1
:044580006542000090
:04458400006CDC02E9
:0400000300004000B9
:00000001FF
