:1040000048C0002001430000FD420000FD420000C6
:10401000FD420000FD420000FD42000000000000E3
:10402000000000000000000000000000FD42000051
:10403000FD42000000000000FD420000FD420000C3
:10404000FD420000FD420000FD420000FD42000074
:10405000FD420000FD420000FD420000FD42000064
:10406000FD420000FD420000FD42000079430000D7
:10407000FD420000FD420000FD420000FD42000044
:10408000FD420000FD420000FD420000FD42000034
:10409000FD420000FD420000FD420000FD42000024
:1040A000FD420000FD420000FD420000FD42000014
:1040B000FD420000FD420000FD420000FD42000004
:1040C000FD420000FD420000FD420000FD420000F4
:1040D000FD420000FD420000FD420000FD420000E4
:1040E000FD420000FD420000FD420000FD420000D4
:1040F00000000000A5420000FD420000FD4200005B
:10410000FD420000FD420000FD420000FD420000B3
:10411000FD420000FD420000FD420000FD420000A3
:10412000FD420000FD420000FD420000FD42000093
:10413000FD420000FD420000FD420000FD42000083
:10414000FD420000FD420000FD420000FD42000073
:10415000FD420000FD4200000000000000000000E1
:10416000000000000000000000000000000000004F
:10417000000000000000000000000000000000003F
:10418000FD420000FD420000FD420000FD42000033
:1041900000000000FD420000FD420000FD42000062
:1041A000FD420000FD420000FD420000FD42000013
:1041B000FD420000FD420000FD420000FD42000003
:1041C000FD420000FD420000FD420000FD420000F3
:1041D000FD420000000000000000000000000000A0
:1041E000000000000000000000000000B1430000DB
:1041F000C1430000FD420000FD420000000000003D
:10420000000000000000000000000000FD4200006F
:10421000FD420000FD420000FD420000FD420000A2
:10422000FD420000FD420000FD420000FD42000092
:10423000FD420000FD420000FD420000FD42000082
:1042400000000000FD420000FD420000FD420000B1
:10425000FD420000FD420000FD420000FD42000062
:104260000000000010B5054C237833B9044B13B19E
:104270000448AFF300800123237010BD0C00002020
:1042800000000000384E000008B5034B1BB1034985
:104290000348AFF3008008BD0000000010000020BC
:1042A000384E00000B4A937882B0DBB20193019B39
:1042B000990705D5084B1B6813B1506802B0184721
:1042C000019BDB0704D5044B5B680BB1014AF4E7A3
:1042D00002B070470000024134000020014B024A46
:1042E0001A60704700000020006CDC02014B024A9B
:1042F0001A60704700000020006CDC02FEE700003E
:1043000008B5144A144B9A4203D01449043A8B421C
:1043100018D3134B134A0021934218D3124A134B5C
:1043200022F07F029A60D3F8882042F47002C3F82A
:104330008820BFF34F8FBFF36F8F0D4B98470D4B06
:104340009847FEE752F8040F43F8040BDFE743F801
:10435000041BE1E7384E0000000000200C000020A4
:104360000C000020440000200040000000ED00E0B0
:10437000D14D0000354C0000074B10B51C68E368B8
:104380009B89DB0507D523680BB120469847E36876
:104390004FF480729A8110BD28000020C268917A83
:1043A000C90703D5012191720368184770470000BF
:1043B000014B1868014B18472C0000209D4300005A
:1043C000014B5868014B18472C0000209D4300000A
:1043D000054B4FF400129A604FF480029A604FF43C
:1043E00000329A60704700BF0080004182B01A23FB
:1043F0000193019B002B01DC02B07047019B013B44
:10440000F6E7000007B52323064A0193019B002B22
:1044100002DC03B05DF804FB9047019B013B019374
:10442000F4E700BFED43000007B540F24F13064A22
:104430000193019B002B02DC03B05DF804FB904765
:10444000019B013B0193F4E7ED43000007B540F603
:104450001B53064A0193019B002B02DC03B05DF85D
:1044600004FB9047019B013B0193F4E7ED430000FF
:10447000074A08494FF4003310B5536188479369E0
:1044800043F4003393618847034BBDE8104018475D
:1044900000800041ED43000005440000024B4FF452
:1044A00000325A61014B184700800041ED43000083
:1044B000034A936943F400339361024B184700BFEA
:1044C00000800041ED43000010B5044B9847044BB9
:1044D0009847044BBDE81040184700BF0544000052
:1044E000ED4300009D44000010B5074B9847074975
:1044F00088470748804788478847884788478047D4
:10450000044BBDE810401847C94400009D4400001A
:10451000B14400007144000010B5074B98470749AB
:1045200088470748804780478847884788478047AB
:10453000044BBDE810401847C94400009D440000EA
:10454000B14400007144000010B5074B984707497B
:104550008847884706488047884788478847804774
:10456000044BBDE810401847C94400009D440000BA
:10457000B14400007144000010B5074B984707484C
:10458000804707498847804788478847884780474A
:10459000044BBDE810401847C9440000B144000076
:1045A0009D4400007144000010B5074B9847074830
:1045B000804780470649884788478847884780471B
:1045C000044BBDE810401847C9440000B144000046
:1045D0009D4400007144000010B5074B98470749FF
:1045E00088478847884706488047804780478847EC
:1045F000044BBDE810401847C9440000B144000016
:104600009D4400007144000010B5074B98470749CE
:1046100088478847064880478047884788478047BB
:10462000044BBDE810401847C9440000B1440000E5
:104630009D4400007144000010B5074B984707499E
:10464000884707488047884788478047804788478A
:10465000044BBDE810401847C94400009D440000C9
:10466000B14400007144000010B5074B984707495A
:104670008847074880478847804788478847884752
:10468000044BBDE810401847C94400009D44000099
:10469000B14400007144000010B5074B984707482B
:1046A0008047074988478047804788478847884729
:1046B000044BBDE810401847C9440000B144000055
:1046C0009D4400007144000010B5034B9847034B14
:1046D000BDE81040184700BF994600006946000039
:1046E00010B5094B9847094B9847094988478847AF
:1046F0008847884788478847064B98478847064B2E
:10470000BDE81040184700BF4D440000ED430000D5
:104710009D440000B14400007144000010B5034BFB
:104720009847034BBDE81040184700BF29440000DC
:10473000E146000010B5034B9847034BBDE810401D
:10474000184700BF4D440000E146000010B5034883
:104750008047034B9847BDE8104000471D470000C5
:10476000E146000010B5074B98470749884788473E
:10477000884788470548804780478847044BBDE8FD
:1047800010401847C94400009D440000B144000097
:104790007144000010B5074B984707498847074800
:1047A000804780478847884788478047044BBDE853
:1047B00010401847C9440000B14400009D44000067
:1047C0007144000010B5074B9847074880470749D8
:1047D000884788478047884788478047044BBDE81B
:1047E00010401847C94400009D440000B144000037
:1047F0007144000010B5074B984707498847884720
:10480000884706488047804780478847044BBDE873
:1048100010401847C94400009D440000B144000006
:104820007144000010B5074B984707488047074977
:10483000884788478847804780478847044BBDE8BA
:1048400010401847C94400009D440000B1440000D6
:104850007144000010B5074B98470749884707483F
:10486000804788478847804788478047044BBDE892
:1048700010401847C94400009D440000B1440000A6
:104880007144000010B5074B98470749884788478F
:10489000064880478847804780478847044BBDE8E3
:1048A00010401847C94400009D440000B144000076
:1048B0007144000010B5074B98470749884788475F
:1048C000064880478847804788478047044BBDE8B3
:1048D00010401847C94400009D440000B144000046
:1048E0007144000010B5074B9847074880470749B7
:1048F000884788478847804780478847044BBDE8FA
:1049000010401847C9440000B14400009D44000015
:104910007144000010B5074B984707488047074986
:10492000884788478847884788478047044BBDE8C1
:1049300010401847C9440000B14400009D440000E5
:104940007144000010B5094B9847094B9847094836
:104950008047094988478847884780478847804774
:104960008847064BBDE81040184700BF4D44000083
:10497000ED4300009D440000B1440000714400007C
:1049800010B5094B9847094B984709488047094992
:104990008847884788478047884788478047064B2D
:1049A000BDE81040184700BF4D440000ED43000033
:1049B0009D440000B14400007144000010B5094B53
:1049C0009847094B984709498847094880478847CD
:1049D00080478847804780478847064BBDE810409E
:1049E000184700BF4D440000ED4300009D44000007
:1049F000B14400007144000010B50C4B98470C4ABC
:104A000090470C494FF40030486190474861904707
:104A1000904790479047904790478B6943F4003305
:104A20008B619047044BBDE8104018474D4400008F
:104A3000ED430000008000417144000010B5114BAF
:104A40009847114A904711494FF400304861904708
:104A50008B6943F400338B619047486190479047DE
:104A600090478B6943F400338B61904748619047CE
:104A70008B6943F400338B619047054BBDE81040D0
:104A8000184700BF4D440000ED4300000080004186
:104A90007144000010B5034B9847034BBDE810402C
:104AA000184700BF654700004D47000010B5034B95
:104AB0009847034BBDE81040184700BFE548000089
:104AC0004D4700002DE9F041094E0A4F05460024EC
:104AD00025FA04F3DB0709D5B8470134082CF7D1D0
:104AE000054B9847054BBDE8F0411847B047F4E740
:104AF000AD4A0000954A0000C94600004D4700003D
:104B000070B5094B094C0A4D9847002120FA01F372
:104B1000DB0707D5A84701310729F7D1054BBDE8C9
:104B200070401847A047F6E7C94400009D440000C4
:104B3000B1440000714400002DE9F047DFF8809097
:104B40001D4D4FF040084E46C847A8471B4C202734
:104B500038460137A0477F2FFAD1B047A847B8F1B0
:104B60000108F1D1B047A847B047A8472020A04787
:104B70002020A0476120A0477220A0476520A047C1
:104B80002020A0477920A0476F20A0477520A0478C
:104B90002020A0477220A0476520A0476120A047A1
:104BA0006420A0477920A0473F20A047B0472B466C
:104BB000BDE8F047184700BF4D470000014B00001B
:104BC000C946000070B5074B074E084D9847084B83
:104BD00098475024747020460134A8475A2CF9D1C4
:104BE00070BD00BFC946000004000020C54A000097
:104BF0004D47000007B543F29103064A0193019B1C
:104C0000002B02DC03B05DF804FB9047019B013BE5
:104C10000193F4E7ED43000010B5044CA0470449AC
:104C20004FF48000C861A047C86110BDF54B00007B
:104C3000008000412DE9FF41424B434C9847434BD4
:104C40009847434B9847A047A047A047A047A04795
:104C5000A047404B2B229A703F4B98473F4B9847B9
:104C60003F4B98473F4B984745F234230193019BB4
:104C7000002B5ADC3C4B3D4E0293029B002B57DC31
:104C80003B4CDFF848813B4F4AF69C55A047C04754
:104C9000A047B847A047384B9847A047374B98479D
:104CA000A047374B9847A047364B9847A047364B0D
:104CB0009847A047354B9847A047354B9847A047A2
:104CC000344B9847A047344B9847A047334B9847FD
:104CD000A047334B9847A047324B9847A047324BE9
:104CE0009847A047314B9847A047314B9847A0477A
:104CF000B047A0472F4B9847A0472F4B9847A04756
:104D00002E4B9847A0472E4B9847A0472D4B9847CE
:104D1000A047013DBAD12C4A1A204FF4001103904C
:104D2000039B002B09DCD161F9E7019B013B9DE767
:104D3000B047029B013B02939FE7039B013B039318
:104D4000EEE700BFED420000194C0000DD4200001C
:104D5000D143000004000020C94600004D47000078
:104D6000394B0000C54B0000B38D9700BD490000D2
:104D700035470000B54800003D4A00005548000096
:104D800025480000D945000019450000794500007C
:104D900049450000A9450000E9440000154900000C
:104DA0006547000095470000F54700008149000075
:104DB000C54700008548000009460000394600004C
:104DC000E5480000F9490000008000414549000025
:104DD00070B50D4E0D4CA41BA4100025A54209D1A1
:104DE0000B4E0C4C00F018F8A41BA4100025A54293
:104DF00005D170BD56F8253098470135EEE756F8D5
:104E0000253098470135F2E7244E0000244E00007B
:104E1000244E0000284E0000F8B500BFF8BC08BCC6
:104E20009E46704789420000F8B500BFF8BC08BC38
:084E30009E4670476542000038
:0C4E3800006CDC02FF7FFFFFFFFFFFFFAC
:0400000300004000B9
:00000001FF
