:1040000030C000205D4300005943000059430000C8
:1040100059430000594300005943000000000000CC
:1040200000000000000000000000000059430000F4
:1040300059430000000000005943000059430000AC
:104040005943000059430000594300005943000000
:1040500059430000594300005943000059430000F0
:1040600059430000594300005943000059430000E0
:1040700059430000594300005943000059430000D0
:1040800059430000594300005943000059430000C0
:1040900059430000594300005943000059430000B0
:1040A00059430000594300005943000059430000A0
:1040B0005943000059430000594300005943000090
:1040C0005943000059430000594300005943000080
:1040D0005943000059430000594300005943000070
:1040E0005943000059430000594300005943000060
:1040F0000000000021430000594300005943000024
:10410000594300005943000059430000594300003F
:10411000594300005943000059430000594300002F
:10412000594300005943000059430000594300001F
:10413000594300005943000059430000594300000F
:1041400059430000594300005943000059430000FF
:104150005943000059430000000000000000000027
:10416000000000000000000000000000000000004F
:10417000000000000000000000000000000000003F
:1041800059430000594300005943000059430000BF
:10419000000000005943000059430000594300004B
:1041A000594300005943000059430000594300009F
:1041B000594300005943000059430000594300008F
:1041C000594300005943000059430000594300007F
:1041D000594300005943000059430000594300006F
:1041E000594300005943000059430000594300005F
:1041F000594300005943000059430000594300004F
:104200005943000000000000000000005943000076
:10421000594300005943000059430000594300002E
:10422000594300005943000059430000594300001E
:10423000594300005943000059430000594300000E
:1042400059430000594300005943000059430000FE
:1042500059430000594300005943000059430000EE
:104260000000000008B50548054B1B1A062B00D8B6
:1042700008BD044B002BFBD09847F9E70C46000023
:104280000F4600000000000008B50748074B1B1A46
:104290009B1003EBD373591000D108BD044A002AC8
:1042A000FBD09047F9E700BF0C4600000C46000029
:1042B0000000000010B5064C237843B9FFF7D2FF89
:1042C000044B13B10448AFF300800123237010BDE9
:1042D00004000020000000000C46000008B5074B59
:1042E0001BB107480749AFF300800748036813B1C3
:1042F000064B03B19847BDE80840C5E70000000041
:104300000C460000080000200C46000000000000E1
:10431000014B024A1A60704700000020006CDC026A
:1043200007B50B4A9378DBB20193019B990702D53D
:10433000084B1B6833B9019BDB0705D5054B5B6850
:1043400013B1034A5068984703B05DF804FB00BFFF
:104350000000024120000020FEE70000164B174A33
:10436000934210B51C4601D0002301E0144B07E036
:104370001449D0188842F9D2E158D1500433F7E7F4
:10438000114A934203D2002243F8042BF8E70F4A64
:104390000F4B22F07F029A60D3F8882042F470021B
:1043A000C3F88820BFF34F8FBFF36F8F094B984737
:1043B000094B9847FEE700BF0C46000000000020B4
:1043C0000400002004000020300000200040000015
:1043D00000ED00E0A14500004145000082B001234E
:1043E0000193019B012B02DC019B0133F8E702B032
:1043F0007047000038B5054C054DA847013CFBD17E
:10440000024CA847013CFCD138BD00BFD0A720001A
:10441000DD43000010B5044B044C9847A047044B03
:104420009847A04710BD00BF81450000F54300003C
:1044300091450000354B1A8892B21A80344B1A7895
:1044400042F001021A705A68D207FCD4304A4FF485
:104450008271D1625A689006FCD42D4B4FF482725F
:104460001A622B4B5B6813F00402FAD1294B1A77BE
:10447000294A9A6293F82C2002F0100202F0FF0100
:10448000002AF7D1234B83F82010224B93F82C20DD
:104490005107FAD41A7F42F002021A7793F82C20BF
:1044A0009207FBD41B4B982283F82020194B1B69E1
:1044B000D805FBD5164B194A5A635A681106FCD425
:1044C000134B4522C3F88420A3F540633B225A6373
:1044D0001946CA6B0F4B5207FBD44FF400629A6324
:1044E000022283F830200B4B1A6C9007FBD51B6C13
:1044F000D907F8D5064B40F207321A625A685207BC
:10450000FCD4074B01225A71704700BF00400041A4
:10451000001C0040001000400000010406011800CB
:104520000008004008B5034B9847034B9847034BDE
:104530009847FAE78145000015440000F543000064
:1045400008B5044B9847044B9847044B9847044BD5
:10455000984700BF11430000354400006545000046
:1045600025450000044B4FF400029A604FF0804252
:104570009A62024A9A62704700800041800000C03F
:10458000024B4FF400029A61704700BF0080004167
:10459000024B4FF400025A61704700BF0080004197
:1045A00070B50E4B0E4DED1AAD1000241E46AC42F8
:1045B00004D056F8242090470134F8E700F016F8AC
:1045C000084D094BED1AAD1000241E46AC4204D034
:1045D00056F8242090470134F8E770BDF8450000F4
:1045E000F8450000FC450000F8450000F8B500BFA4
:1045F000F8BC08BC9E467047DD420000F8B500BF1D
:0C460000F8BC08BC9E467047B5420000A4
:04460C00006CDC0260
:0400000300004000B9
:00000001FF
