:1040000030C00020F1420000ED420000ED4200000F
:10401000ED420000ED420000ED4200000000000013
:10402000000000000000000000000000ED42000061
:10403000ED42000000000000ED420000ED420000F3
:10404000ED420000ED420000ED420000ED420000B4
:10405000ED420000ED420000ED420000ED420000A4
:10406000ED420000ED420000ED420000ED42000094
:10407000ED420000ED420000ED420000ED42000084
:10408000ED420000ED420000ED420000ED42000074
:10409000ED420000ED420000ED420000ED42000064
:1040A000ED420000ED420000ED420000ED42000054
:1040B000ED420000ED420000ED420000ED42000044
:1040C000ED420000ED420000ED420000ED42000034
:1040D000ED420000ED420000ED420000ED42000024
:1040E000ED420000ED420000ED420000ED42000014
:1040F00000000000B5420000ED420000ED4200006B
:10410000ED420000ED420000ED420000ED420000F3
:10411000ED420000ED420000ED420000ED420000E3
:10412000ED420000ED420000ED420000ED420000D3
:10413000ED420000ED420000ED420000ED420000C3
:10414000ED420000ED420000ED420000ED420000B3
:10415000ED420000ED420000000000000000000001
:10416000000000000000000000000000000000004F
:10417000000000000000000000000000000000003F
:10418000ED420000ED420000ED420000ED42000073
:1041900000000000ED420000ED420000ED42000092
:1041A000ED420000ED420000ED420000ED42000053
:1041B000ED420000ED420000ED420000ED42000043
:1041C000ED420000ED420000ED420000ED42000033
:1041D000ED420000ED420000ED420000ED42000023
:1041E000ED420000ED420000ED420000ED42000013
:1041F000ED420000ED420000ED420000ED42000003
:10420000ED4200000000000000000000ED42000050
:10421000ED420000ED420000ED420000ED420000E2
:10422000ED420000ED420000ED420000ED420000D2
:10423000ED420000ED420000ED420000ED420000C2
:10424000ED420000ED420000ED420000ED420000B2
:10425000ED420000ED420000ED420000ED420000A2
:104260000000000010B5054C237833B9044B13B19E
:104270000448AFF300800123237010BD0400002028
:1042800000000000F844000008B5034B1BB10349CF
:104290000348AFF3008008BD0000000008000020C4
:1042A000F8440000014B024A1A60704700000020E9
:1042B000006CDC020B4A937882B0DBB20193019B65
:1042C000990705D5084B1B6813B1506802B0184711
:1042D000019BDB0704D5044B5B680BB1014AF4E793
:1042E00002B070470000024120000020FEE70000FD
:1042F00008B5144A144B9A4203D01449043A8B422D
:1043000018D3134B134A0021934218D3124A134B6C
:1043100022F07F029A60D3F8882042F47002C3F83A
:104320008820BFF34F8FBFF36F8F0D4B98470D4B16
:104330009847FEE752F8040F43F8040BDFE743F811
:10434000041BE1E7F8440000000000200400002006
:1043500004000020300000200040000000ED00E0DC
:10436000914400000944000082B001230193019BA5
:10437000012B01DD02B07047019B0133F6E700001D
:1043800008B5034A03498847013AFCD108BD00BF7C
:10439000D0A720006943000010B5034B9847034B9A
:1043A000BDE81040184700BF5144000061440000C0
:1043B00010B5034B9847034BBDE81040184700BFAA
:1043C000714400008144000010B5054B054C98472E
:1043D000A047054B98472346BDE81040184700BF4B
:1043E0009943000081430000B143000008B5034B2E
:1043F000034D044C9847A847A047FCE799430000A9
:10440000C94300008143000008B5034B9847034BA4
:104410009847034B984700BFA54200002544000081
:10442000ED430000074B08494FF400029A604FF03B
:1044300080429A6299624FF4803199609A62034A8D
:104440009A62704700800041800000C0010000C0F7
:10445000024B4FF480329A61704700BF00800041E8
:10446000024B4FF400029A61704700BF0080004188
:10447000024B4FF480325A61704700BF0080004108
:10448000024B4FF400025A61704700BF00800041A8
:1044900070B50D4E0D4CA41BA4100025A54209D1EA
:1044A0000B4E0C4C00F018F8A41BA4100025A542DC
:1044B00005D170BD56F8253098470135EEE756F81E
:1044C000253098470135F2E7E4440000E444000059
:1044D000E4440000E8440000F8B500BFF8BC08BCA4
:1044E0009E46704789420000F8B500BFF8BC08BC82
:0844F0009E4670476542000082
:0444F800006CDC0276
:0400000300004000B9
:00000001FF
